:020000040800F2
:10000000705101209D010008A5010008A70100080A
:10001000A9010008AB010008AD01000800000000C4
:10002000000000000000000000000000AF01000818
:10003000B101000800000000B3010008ADED0008A8
:10004000B7010008B7010008B7010008B7010008B0
:10005000B7010008B7010008B7010008B7010008A0
:10006000B7010008B7010008B7010008B701000890
:10007000B7010008B7010008B7010008A96F000820
:10008000B7010008B7010008B7010008B701000870
:10009000B7010008B7010008B7010008B701000860
:1000A000A5EE0008B7010008B7010008B701000875
:1000B000BDEE0008D5EE0008B7010008B701000842
:1000C000B7010008B7010008B7010008B701000830
:1000D00069EC0008B9F80008B7010008D1F8000879
:1000E000B7010008B7010008B701000835EF0008A4
:1000F000B70100086DEF000855EF0008B7010008D0
:10010000B7010008B7010008EDEE0008B7010008CC
:10011000DDF40008F5F4000805EF00081DEF000805
:10012000C16F0008B7010008B7010008B701000857
:10013000B7010008B7010008B7010008B7010008BF
:10014000B7010008B7010008B7010008B7010008AF
:10015000B7010008B7010008B7010008E9F8000876
:10016000B7010008B7010008B7010008B70100088F
:10017000B7010008B7010008B7010008000000003F
:10018000B7010008B7010008DFF80CD000F0A4FBAD
:100190000048004769170108705101200648804750
:1001A00006480047FEE7FEE7FEE7FEE7FEE7FEE75C
:1001B000FEE7FEE7FEE7FEE751EE000889010008D2
:1001C0002DE9F05F0546002092469B46884606468C
:1001D000814640241BE0284641464746224600F01F
:1001E000AEFA53465A46C01A914110D311461846EA
:1001F000224600F095FA2D1A67EB01084F46224679
:100200000120002100F08CFA17EB00094E41201E5E
:10021000A4F10104DFDC484631462A464346BDE8E6
:10022000F09F40EA01039B0703D009E008C9121FB1
:1002300008C0042AFAD203E011F8013B00F8013BA0
:10024000521EF9D27047D2B201E000F8012B491ECC
:10025000FBD270470022F6E710B513460A46044663
:100260001946FFF7F0FF204610BD421C10F8011B95
:100270000029FBD1801A704710B5002200E0521C03
:10028000835C8C5CA34201D1002BF8D1D8B2E1B2DF
:10029000401A10BD034611F8012B00F8012B002A6B
:1002A000F9D1184670472DE9FE4F804681EA0300D8
:1002B000C00F0C46009021F0004123F00045B8EB40
:1002C0000200A94105D24046214690461C460B46F5
:1002D000024623F00040104347D0270DC7F30A0021
:1002E000C3F30A510290401A019040286BDAC3F31D
:1002F000130040F4801B0098924620B10023D2EBFB
:10030000030A63EB0B0B01985946C0F140025046BB
:1003100000F006FA06460D4650465946019A00F08E
:100320001EFA10EB08006141002487EA115284EAAA
:10033000E7731A4340D0009A62B3019A012A4FEA48
:10034000075215DC001B61EB02014FF0004202EA8C
:100350000752CDE90042001C41F5801132462B4680
:1003600000F055FA03B0BDE8F08F40462146F9E7AA
:10037000001B61EB0201001C41F5801300185B417A
:100380002018A2F5001747EB030140EAD570B61913
:100390006D4111E06D084FEA360645EAC0754FEA37
:1003A0000752001B61EB0201001C41F58011490856
:1003B0004FEA30000019514132462B4603B0BDE8E8
:1003C000F04F00F015BA0098012240000023D0EB56
:1003D000020263EBE073009821464FEAE074B8EB49
:1003E000000061EB0401E9E783F000435BE781F083
:1003F000004158E72DE9FE4F81EA030404F0004470
:1004000021F0004100944FF0000B23F0004350EA2C
:1004100001045ED052EA03045BD0C3F30A54C1F373
:100420000A552C44A4F2F3340194A0FB0254C1F306
:10043000130141F48011C3F3130343F4801301FB50
:10044000024400FB034E840A970A44EA815447EAB7
:100450008357A4FB076802958D0A05FB07854FEAC1
:10046000932C04FB0C542705029D4FEA065847EADB
:100470001637B5EB08056EEB070C870E920E47EAB0
:10048000811742EA8312A7FB0201B6EB0B0164EB72
:1004900000042B0D43EA0C335E1844EB1C50DA4683
:1004A0005146E7FB0201C5F313044FEA0B3343EA5D
:1004B00014534FEA0432019C43EA0603A4F10C04EE
:1004C0000294009CCDE900B400F0A1F903B0BDE8AE
:1004D000F08F00200146F9E72DE9F04D81EA030491
:1004E00004F0004B21F0004514464FF0000A23F0C1
:1004F000004150EA050220D054EA01021DD0C5F3A4
:100500000A570246C5F31303C1F31300C1F30A5699
:1005100040F4801543F48013A7EB0608101BD64661
:1005200008F2FD3873EB050002D308F1010801E081
:1005300092185B41B8F1000F03DA00200146BDE8D4
:10054000F08D00204FF48011064684460EE0171B04
:1005500073EB050705D3121B63EB050306434CEA57
:10056000010C49084FEA300092185B4150EA01073C
:10057000EDD152EA030012D082EA040083EA0501B9
:10058000084305D0101BAB4106D20122002306E030
:1005900000224FF0004302E06FF0010253101AEB0B
:1005A00006004CEB085110EB0A0041EB0B01BDE8D3
:1005B000F04D00F01DB90EB5C10F80EAE07008449F
:1005C000CA07002140F233438DE80E000A460B466D
:1005D00000F01DF903B000BD0EB540F233410291A9
:1005E0000021CDE900110A460B4600F010F903B0D6
:1005F00000BD70B5C1F30A5201F000450024C1F3FB
:10060000130140F2FF3341F480119A4201DA0020D5
:1006100070BD40F233439A42A2F2334203DC5242AD
:1006200000F08DF800E090402C43F1D0404270BDC6
:10063000C1F30A5210B5C1F3130140F2FF3341F484
:1006400080119A4201DA002010BD40F233439A42F1
:10065000A2F2334203DC524200F071F810BD904028
:1006600010BD00F0004230F000400AD0C10D01F58D
:100670006071C0F3160042EA0151C20840071143FD
:10068000704700200146704730B5041E71F1000428
:1006900004DB4FF00044404264EB0101141E73F18F
:1006A000000405DB1C464FF00043524263EB040399
:1006B0008B4208BF824230BD30B5041E71F1000488
:1006C00004DB4FF00044404264EB0101141E73F15F
:1006D000000405DB1C464FF00043524263EB040369
:1006E000994208BF904230BD01F0004330B421F080
:1006F000004150EA010206D00A0DA2F56072C1F372
:100700001301002A02DC30BC00207047440F44EA89
:10071000C104C100E01830BC00EBC25000F031B899
:10072000202A04DB203A00FA02F1002070479140B1
:10073000C2F1200320FA03F3194390407047202AA6
:1007400004DB203A21FA02F00021704721FA02F37B
:10075000D040C2F120029140084319467047202A38
:1007600006DBCB17203A41FA02F043EAE07306E0D9
:1007700041FA02F3D040C2F12002914008431946E9
:1007800070470029A8BF7047401C490008BF20F0EF
:100790000100704710B4B0FA80FC00FA0CF050EA87
:1007A000010404BF10BC704749B1CCF1200421FA08
:1007B00004F411FA0CF118BF012121430843A3EB03
:1007C0000C01CB1D4FEA00614FEA102042BF002010
:1007D00010BC704700EBC35010440029A4BF10BCEC
:1007E0007047401C490008BF20F0010010BC704752
:1007F00010B5141E73F1000408DA401C41F1000129
:1008000092185B411A4301D120F0010010BD2DE97F
:10081000F04D92469B4611B1B1FA81F202E0B0FA76
:1008200080F220329046FFF77BFF04460F4640EAF5
:100830000A0041EA0B0153465A46084313D01146B9
:1008400053EA010019D0C8F140025046FFF777FF84
:1008500005460E46504659464246FFF761FF08439B
:1008600005D0012004E020463946BDE8F08D002087
:10087000054346EAE0762C4337430A986305E40AC9
:10088000A0EB08000022FD0A44EA47540A3002D5D2
:1008900000200146E9E7010510196941DDE9084535
:1008A00000196941BDE8F04DA2E770B521F00043A1
:1008B00003430CD0C1F30A550024D5EB040564EBC7
:1008C0000403D617AD1AB34102DB0020014670BD08
:1008D000201841EB025170BD064C074D06E0E06860
:1008E00040F0010394E8070098471034AC42F6D377
:1008F000FFF74EFC082E0108282E01082DE9F04DC7
:1009000000231A461B1A8A4103DB00200146BDE87A
:10091000F08DC1F30A52C1F3130141F480154FF079
:10092000000BD10702D100186D41521E002704466A
:1009300040F2FF11384601EB620A3E46804602460D
:1009400000204FF48011FFF7FAFEC2197141BB1865
:1009500046EB0100B4EB030C75EB000C04D3E41A76
:1009600065EB000517460E46241908F101006D419C
:1009700080463428E3DDF91946EB0600091BA8413F
:1009800003D24FF0FF32134601E0002213461BEB67
:10099000070046EB0A51BDE8F04DFFF729BF70B5DF
:1009A0008C1810F8015B15F0070301D110F8013B1A
:1009B0002A1106D110F8012B03E010F8016B01F8A1
:1009C000016B5B1EF9D12B0705D40023521E0DD4F9
:1009D00001F8013BFAE710F8013BCB1A921C03E047
:1009E00013F8015B01F8015B521EF9D5A142D8D37F
:1009F000002070BD434910B5D1F8042322F44032E1
:100A0000C1F80423D1F8042343681A43C1F804232E
:100A100001684A6822F480724A6001684A68036982
:100A200042EA03224A6001684A6822F040724A6042
:100A300001684A6883681A434A6001688A6822F438
:100A400000628A6001688A68C3681A438A60016824
:100A50008A6822F070628A6001688A68036B1A43B0
:100A60008A6001688A6822F040528A6001688A6858
:100A7000C36A1A438A6001688A6822F002028A60A7
:100A800001688A68836942EA43028A60416A0029F0
:100A900001684A680FD042F400624A6001684A68FF
:100AA00022F460424A6001684A68174C836A04EB8A
:100AB00043331A4301E022F400624A600168CA6AC3
:100AC00022F47002CA620168CA6A038C0F4C04EBFC
:100AD00003531A43CA6201688A6822F400728A606A
:100AE00001688A68C36942EA43228A6001688A68A9
:100AF00022F480628A6001688A68406942EA802044
:100B0000886010BD0020014000E0FFFF0000F0FF02
:100B10002DE9F04FDFF8048201272DED028B85B01F
:100B20007F4CD8F83C004FF007094FF0040A00252D
:100B300078B17C4E4FF0060BB6EE008A01281FD02C
:100B400002287CD0C8F83C5005B0BDEC028BBDE853
:100B5000F08FCDF800A0CDE901796946724807F021
:100B60002BFA714807F038FB28462146C8F8405058
:100B700041F825006D1C082DFAD3C8E90F70E3E792
:100B80000121694807F002FB0028DDD1664807F023
:100B9000A3FAC8F84C00D8F84010234644F82100C6
:100BA000491CC8F8401008B1C6F8145308294FD39F
:100BB000C8F850501968C8F84810C8E910510A46DA
:100BC0002C46284653F824C06044944500D9624618
:100BD0008C4500D26146641C082CF3D3801A401A5D
:100BE000B0FBFBF0C8F84CC0C8F84040C8E9112180
:100BF000C8F85000A8B1D6F80813414300EE101A07
:100C0000B8EE400A30EE080ABCEEC00A86EDC40A0F
:100C100086F81C73D6F80C03C6F81453401CC6F8AB
:100C20000C032846C8F8405043F825006D1C082DD9
:100C3000FAD3C8F84000D8F83C00401C00E00BE0B4
:100C4000C8F83C0005208DE881026946364862E01C
:100C5000354807F0C1FA77E70121334807F096FAE3
:100C600000288CD1304807F037FAC8F84C00D8F883
:100C70004010234644F82100491CC8F8401008B130
:100C8000C6F878530829E3D3C8F850501868C8F854
:100C90004800C8E91050294604460A4653F821C0C6
:100CA0006244A44500D96446844500D26046491C8C
:100CB0000829F3D3C8E91014C8E9120C111B081A4B
:100CC000B0FBFBF0C8F85000A8B1D6F86C13414354
:100CD00000EE101AB8EE400A30EE080ABCEEC00A68
:100CE00086EDDD0A86F88073D6F87003C6F878536F
:100CF000401CC6F870032846C8F8405043F8250049
:100D00006D1C082DFAD3C8E90F70CDF800A0CDE90D
:100D100001796946044807F04FF999E70800002077
:100D200034030020AC220020901400201FB50F488F
:100D30000D49012401604FF4403141600021816080
:100D400081614162C162C0E90314C0E907144161D5
:100D500007F0C5F90720CDE901400420009069465D
:100D6000024807F029F91FBD00200140901400201F
:100D700000B510F0A1F8002810D004280ED2DFE84A
:100D800000F00D0D0D0206484FF4FA7190ED450A82
:100D9000044880ED350A01800821817000BD000003
:100DA00058300020A804002038B50020ADF800001D
:100DB0004FF4806480B20BF0C5FF38B9BDF8000075
:100DC000022381011A46684606F0CEFBBDF80000FA
:100DD000401C80B2ADF80000A042EBD338BD00004B
:100DE0001CB509A1D1E90001CDE900010321684644
:100DF00006F058FE8DF803003223052269460448A8
:100E00000BF078F91CBD000055AA00001600000088
:100E1000B418002070B5104E0E484FF40055294606
:100E20003060FFF717FA0024C6E90154F4600C4E55
:100E30000A4829463060FFF70DFAC6E90154F4600C
:100E400000F034F92A46BDE87040024905480BF02D
:100E5000DFB8000060BD002040BD002060DD002044
:100E600050BD0020B41800201CB509A1D1E9000133
:100E7000CDE900010321684606F014FE8DF8030059
:100E800032230522694604480BF034F91CBD0000EA
:100E900055AA010016000000B41800202DE9F05FEB
:100EA0007748764E2DED088BC1684FF00008B1F5FC
:100EB000005F01D1C0F80C80C1688268891A00D532
:100EC0004942642901DD8168C160C168826891423C
:100ED00024D0C1686B4A0A44491CC160157808F0E7
:100EE000E1FA694C2168411AC82903D986F80180C2
:100EF000C4F804802060644F707808370121052809
:100F00002FD2DFE800F0030F192132004046C4F869
:100F10000480552D02D17170C5556160BDEC088B00
:100F2000BDE8F09FAA2DF9D16068C5556068401CE6
:100F3000606002207070F1E7606821280DD3032102
:100F400071700AE06060E9E72221384606F0AAFDE8
:100F5000A84206D1042070706068C5556068401CC6
:100F6000F0E7404686F80180ECE76068C5556068A8
:100F7000401C6060162DD1D1002004E02218401CD6
:100F8000137A82F8383062688242F7D8C1469FED02
:100F90003FAB0025884600BF04EB4500408FFFF7BC
:100FA0001BFB41EC180B05EBC50000EB05113948A4
:100FB00000EB8107D7F8540707F25477FFF70CFBD3
:100FC00053EC182BFFF716FA53EC1A2BFFF76BF9BB
:100FD000FFF72EFBB86087F8148078686D1C401C02
:100FE000C7F80C907860102DD6D3DFF8B4B09FED21
:100FF0002A8B9FED2CBB9BF8687C0025A24637B15D
:101000000BEBC50000F5406090ED0A9B03E0B0EEED
:101010004B9AF0EE6B9A0AEB4500408FFFF7DCFA33
:1010200053EC192BFFF7E6F953EC182BFFF73BF9BC
:1010300041EC180B6D1C082DE1D3164CD4F8940D1F
:1010400004F69454FFF7C8FA53EC182BFFF7D2F9C3
:1010500053EC1A2BFFF727F9FFF7EAFAA06084F8A0
:1010600014806068C4F80C90401C60608AF830807E
:1010700086F80190CAF8049050E700000C010020A7
:1010800040BD002060BD0020642E01200000000053
:101090000000E03FAC220020000000000000000043
:1010A00020080020000000000000F03F0848074929
:1010B00001604FF4E1314160002181600C22C16088
:1010C000C0E904128161C1610AF065BE00140140EB
:1010D000B418002010B50122D102054808F0DDF94E
:1010E00004480021017041708170C17010BD000082
:1010F000000402409C3E00200A490868426822F031
:10110000A00242600868C26922F48062C2610120C4
:1011100081F83D00002081F83C0003490870887088
:10112000C8707047D41400209C3E0020F0B563487E
:10113000002201240280624D84700223436095EDF9
:10114000131AF8EE410A9FED5F0A60EE800AFCEE8A
:10115000E00AC0ED020ADFED5C0AF8EE411AC0EDCC
:10116000030A9FED5A1A61EE811AFCEEE11AC0EDF6
:10117000041A9FED572A80ED052A8365D5ED2C1AB8
:10118000F8EE612AF8EE611A62EE802A61EE811AA9
:10119000FCEEE22AFCEEE11AC0ED172AC0ED180AB7
:1011A000C0ED191A80ED1A2AC0F82C3BD5F8946DC1
:1011B00001EE906AF8EE611A61EE801AFCEEE11A17
:1011C00011EE901A01EE906AC0F8301B00F5006134
:1011D000F8EE611AC1EDCD0A61EE811AFCEEE11A5A
:1011E00011EE906ADFED3B1AC0F8386BC1EDCF1AF3
:1011F000C0F88C38D5F8746A02EE106AB8EE422A4C
:1012000022EE002ABCEEC22A12EE107A02EE106A1A
:10121000C0F89078C1ED250AB8EE422A22EE012AE4
:10122000BCEEC22A12EE106AC0F89868C1ED271A07
:10123000C0F8E038D5F8D83A02EE103AB8EE422AB3
:1012400022EE000ABCEEC00A10EE105A00EE103A70
:10125000C0F8E458C1ED3A0AB8EE400A20EE010A9F
:10126000BCEEC00A10EE103AC0F8EC38C1ED3C1AE2
:101270000023002100EB031505EB4106491CC9B210
:10128000A6F8802B0829F7D35B1CDBB20A2BF0D31E
:10129000A0F8202C9FED100BA0F8222C002100BFFD
:1012A00000EBC10202F54062491CC9B282ED0A0B93
:1012B0000829F5D380F8684CF0BD00002008002014
:1012C000AC2200206F12033B00000000643B7F3F14
:1012D00000C07944003C1C46000000000000F03FC4
:1012E00070B50F4A4FF447634FF4C0551C4629466A
:1012F00002F6245000F056FB09488078012803D1FB
:101300000848807A00280AD0FFF710FF23462946B4
:10131000BDE87040024A02F6245000F077BB70BD71
:1013200020080020080000200C484FF447634FF4C9
:10133000C0518278082A06D0092A0ED1024600F64A
:10134000245000F02FBB0288002A06D101228270AF
:10135000024A02F6245000F059BB704720080020D2
:1013600010EE101AB1F17E5F01DDB7EE000AB5EEA6
:10137000C00AF1EE10FA01D29FED0C0AD0ED150A69
:1013800090ED121AF7EE001AF8EE600AB8EE411A64
:1013900060EE800A31EEC00A21EE000A30EE800ACB
:1013A000BCEEC00A80ED120A704700000000000089
:1013B0002DE9F0415848002401210480A0F5AA72CB
:1013C000817092F83670062603221D2309250C2F02
:1013D0007ED2DFE807F09E060910121A8E919399CB
:1013E000999980F884600AE00B2380F8843080F8B3
:1013F000852026220FE00726F3E780F8845080F846
:10140000852000BF80F8863007E0022380F8843012
:1014100080F885201C2280F8862080F8874080F89C
:10142000884080F8A14000228318521C83F8A21043
:10143000232AF9D3B7EE000A80ED340A9FED370A6C
:101440007A2180ED350A80F88910722180F88A109F
:10145000162180F88B10572180F88C101F2180F8FE
:101460008D10962180F88E1080F88F4080F8904083
:1014700080F8914080F8924080F8934080F8944042
:1014800080F8954080F8964080F8974080F8984022
:1014900080F8994080F89A4080F89B4080F89C4002
:1014A00080F89D4080F89E4080F89F4080F8A040E2
:1014B0000521A0F8C6101E21A0F8C8100F21A0F821
:1014C000CA10A0F8CC10A0F8CE5015A1001D00E065
:1014D0001FE0FEF7DFFE104814A11430FEF7DAFE1D
:1014E0000D4814A12430FEF7D5FE14488465BDE8EC
:1014F000F08180F8842082E7042672E780F8846017
:1015000080F88520172286E780F8841080F88510FF
:1015100078E780F8841072E7A8040020000000003B
:1015200034303036303239303132000037393839E2
:1015300032350000303731313132000008000020F0
:1015400070B5DC242346134AB021134800F02AFA70
:101550004FF4F2750423114A29460F4800F022FA8D
:101560000C488078012804D10C485838807A00282B
:101570000FD0FFF71DFF2346064AB021064800F0B2
:1015800045FA2946BDE870400423044A024800F0A9
:101590003DBA70BDA8040020441500206000002062
:1015A0000B488178082907D0092910D1DC2302468D
:1015B000B021084800F0F6B90188002907D10121BF
:1015C0008170DC23024AB021024800F01FBA704744
:1015D000A80400204415002070B51E4800210123F6
:1015E0000180A0F5A072837092F836500624032281
:1015F0000C2D2DD2DFE805F02C1C060C0F1215184F
:101600001C1F1F1F01710B2310E08171C27116E0B6
:10161000017107230AE00171092307E00171022328
:1016200004E001714271F0E7017104234371ECE7BA
:1016300001714471E9E7017143718171C3715322F2
:1016400002721122427225228272C172017370BD30
:101650000171EBE7940400202DE9F04114254FF4CB
:10166000E8762B461D4A31461D4800F09BF91D487F
:101670000321012290F8363000200C2B07D2DFE83E
:1016800003F00606060606060606060B0B0B60F3BD
:10169000070461F30F2403E060F3070462F30F24EF
:1016A0000E49114B8F7927B9CF79C4F30724A7428C
:1016B00001D09A7200E098728878012802D1987A55
:1016C000002809D0FFF788FF2B463146BDE8F041DE
:1016D000024A034800F09AB9BDE8F0819404002062
:1016E00044150020540300200800002013484FF444
:1016F000E871027A532A02D1427A112A08D0532281
:1017000002721122427208228270002202800CE0D2
:101710008278082A06D0092A0ED11423074A0848DD
:1017200000F040B90288002A06D1142301228270F9
:10173000024A034800F06AB9704700009404002090
:10174000441500200022134810B502800123837045
:1017500002719FED110A4271114600BF00EB810436
:1017600084ED020A4418491CC9B284F828200829CB
:10177000F4D300214418491CC9B284F8302004294C
:10178000F8D380F8353000F8343F82700348826522
:1017900010BD0000540300209AF97944080000208D
:1017A00010B53C2423460C4A00210C4800F0FAF8FE
:1017B00009488078012803D10948807A002809D097
:1017C000FFF7C0FF2346BDE81040034A002103484D
:1017D00000F01CB910BD0000540300204415002087
:1017E000080000200B488178082907D0092910D16A
:1017F0003C2302460021084800F0D4B801880029A3
:1018000007D1012181703C23024A0021024800F0E7
:10181000FDB87047540300204415002030B51A4825
:101820000021B1EE040A0180012181700321416091
:1018300080ED040AB0EE0C0A416180ED060A022236
:10184000C261B0EE080A80ED080A12229FED0F0A6D
:10185000426280ED0A0A9FED0E0A00231A46C16219
:1018600000EBC205521C6C6995ED041A00EE904A1B
:1018700023449142F8EE600A01EE200AF0D880ED90
:10188000030A836030BD000084050020CDCC4C40AD
:101890000000000070B50F4A64244FF4B055234691
:1018A000294602F57C6000F07DF80A48807801281E
:1018B00003D10948807A00280AD0FFF7AFFF2346FA
:1018C0002946BDE87040034A02F57C6000F09EB8EE
:1018D00070BD000084050020080000201B4830B4C3
:1018E00000229FED190A114644680CE000EBC10587
:1018F000491C6B6995ED041A00EE903A1A44F8EE13
:10190000600A01EE200A8C42F0D8826080ED030A62
:1019100082784FF4B051082A08D0092A12D10B4A14
:1019200030BC642302F57C6000F03CB80288002AD9
:1019300008D1642301228270044A30BC02F57C6025
:1019400000F064B830BC704700000000840500203F
:10195000F8B5054606200E4E8DF800004FF4004401
:1019600000222146304607F098FD14200FF0CCFBF2
:101970004FF47A7301226946284609F092F8142040
:101980000FF0C2FB01222146304607F086FDF8BD6C
:10199000001802400122D103014807F07EBD00007B
:1019A000001802402DE9F843174F91460C46804637
:1019B0004FF400461D4600223146384607F06DFDC3
:1019C00003208DF80000200A8DF801008DF80240F8
:1019D00014200FF099FB4FF47A74234603226946D2
:1019E000404609F05EF8AAB223464946404608F050
:1019F0006DFF14200FF088FB01223146384607F0B6
:101A00004CFDBDE8F8830000001802402DE9F843C2
:101A10001D4691460C468046FFF79AFF14200FF0B2
:101A200073FB184F4FF4004600223146384607F04A
:101A300034FD02208DF80000200A8DF801008DF899
:101A4000024014200FF060FB4FF47A742346032207
:101A50006946404609F025F8AAB223464946404661
:101A600009F01FF814200FF04FFB012231463846D1
:101A700007F013FD0A200FF047FB4046FFF768FF11
:101A8000BDE8F8830018024010B51549ADF5014DC9
:101A900000224888ADF80600401C4880C1208DF81F
:101AA000080003200A218DF809008DF80C10012090
:101AB00005218DF80A00ADF80410ADF80E000FF006
:101AC000DDFBBDF804108DF810200844C01CADF8F3
:101AD0000400684600F05CF80DF5014D10BD0000F3
:101AE000080100202DE9F041284DADF5014D4FF0E2
:101AF000080C6C88ADF80640641C6C80C12502247B
:101B00008DF80850002603278DF80CC08DF8094089
:101B100001254FF0050C4FF0040E8DF80A50ADF87A
:101B200004C020B1012809D002281AD10FE08DF895
:101B30001060ADF80E408DF8111012E08DF81050C5
:101B40008DF81110ADF80E708DF8122009E08DF8A7
:101B500010408DF811108DF81220ADF80EE08DF8C0
:101B60001330BDF80E000FF089FBBDF804100844D7
:101B7000BDF80E100844801CADF80400684600F063
:101B800007F80DF5014DBDE8F081000008010020C7
:101B900070B5344DAA2105F8081F6C1C552104F8B6
:101BA000011BFF2104F8011B04F8021B017904F852
:101BB000011C8188090A04F8041B817904F8031CBC
:101BC000C188090A04F8021C017A04F8011C417A50
:101BD00004F8011B002328E003EB032100EB810143
:101BE0000A7B04F8012BCA89802A0FD3803A7F2A06
:101BF00004D2812204F8012B8A7B07E0822204F8B8
:101C0000012B8A7B04F8012BCA89120A04F8012BE4
:101C1000002205E08E18521C367C04F8016B92B24B
:101C2000CE899642F6D85B1CDBB2817A9942D3D832
:101C30000C4EA01B083881B228460FF018FC04F89F
:101C4000010B000A04F8010BA01B08387060012189
:101C5000317071702946BDE8704082B202480AF0C6
:101C6000AFBA00000C2601203418002010B5012264
:101C7000064907480AF0CCF90449012034310870BC
:101C80000020488003490870487010BDD40000202F
:101C9000341800200C2601202DE9F0415A4BADF5F7
:101CA000014D02465888ADF80600401C5880C123FB
:101CB0008DF8083002208DF809000C208DF80C00FA
:101CC000012308240525002103268DF80A40ADF8DC
:101CD0000450ADF80E3018460FF0D0FABDF804707D
:101CE0003844ADF8040012788DF81020BDF80E20AD
:101CF00010440922401C8DF81024ADF80400ADF802
:101D0000123418460FF0BAFABDF804208DF81434D6
:101D10001044BDF8122402440F208DF81408521C00
:101D2000ADF80420ADF8166830460FF0A7FABDF8FC
:101D300004208DF818181044BDF816288DF81938AD
:101D40001044401C1622ADF804008DF8182C0B200E
:101D50008DF81A18ADF81A0C0FF090FABDF804209F
:101D60008DF81C1C1044D0228DF81D2C07228DF8F4
:101D70001E2C8DF8203C83228DF8212C8DF8224CCE
:101D800006228DF8232C8DF8245C7F228DF8252CDB
:101D9000BDF81A2C0DF5805502448DF81F3C8DF8C6
:101DA000261C0D202877521CADF80420EB83184622
:101DB0000FF064FABDF80420102310442A46801C5A
:101DC00082F8201082F82034ADF80400A2F82244F2
:101DD00020460FF053FABDF804204024024405F2D7
:101DE00024400160047141718371C17130F8020CAB
:101DF0001044801CADF804006846FFF7C9FE0DF5DD
:101E0000014DBDE8F081000008010020FF231A46C3
:101E100019460020FFF766BE2DE9F041494D012229
:101E2000291D2C7948480AF0F3F807F03BFB474A94
:101E300000261168411AC82901D92E705660106019
:101E40004248297801270830072977D2DFE801F0D6
:101E5000040C10161C1F2C005660AA2C02D12F70E7
:101E600034545760BDE8F081552CFBD1022114E0B9
:101E7000FF2C01D0002CF5D103210EE0FF2C01D066
:101E8000002CEFD1042108E05486052105E0518E95
:101E900001EB0421518669700621297051680C54A8
:101EA0005068401C5060DDE75168282946D20C5428
:101EB00053685B1C536069788C1DA342D2D1937B1D
:101EC000D47B03EB04239386137C82F83630537C57
:101ED00082F83730947C82F83840832B0ED1D37C43
:101EE00082F83930002306E0D4185B1C94F814C043
:101EF00084F83AC0DBB2D47C9C42F5D81446134B2C
:101F00005268DFF848C09B1D0CF1070CD35C12F837
:101F10000C20091D03EB0222A4F854200FF0A7FAAD
:101F2000E8806E70B4F85410814203D1084884F8F8
:101F3000307046702E70666094E7FFE72E70566032
:101F400090E70000D000002034180020E42D01208C
:101F50000C26012010B51749ADF5014D0623488820
:101F6000ADF80600401C4880C12102208DF8081001
:101F70008DF80C308DF809000121052300228DF821
:101F80000A10ADF80430ADF80E000FF077F98DF8B7
:101F90001020BDF804308DF81110BDF80E10184453
:101FA0000844801CADF804006846FFF7F1FD0DF50C
:101FB000014D10BD0801002010B51F4AADF5014DBF
:101FC00002235088ADF80600401C5080C1208DF8D7
:101FD00008000B208DF80C000520ADF804008DF8EA
:101FE00009300122082000218DF80A20ADF80E00EA
:101FF0000FF044F9BDF804408DF81430204440241B
:102000008DF810408DF8111010248DF815208DF8E2
:1020100012408DF816208DF813108DF81710BDF8AA
:102020000E100844801CADF804006846FFF7B0FDB0
:102030000DF5014D10BD00000801002010B5ADF5F3
:10204000014D00226946264808F038FA002205A909
:10205000234808F011FA23494888ADF81E00401CB7
:102060004880C12102208DF820108DF82100012028
:102070008DF8220005208DF82400ADF81C00072003
:10208000ADF826000FF0FAF8BDF81C1001449DF8D9
:10209000170000F5FA608DF82800000A8DF8290075
:1020A0009DF815008DF82A009DF816008DF82B007C
:1020B0009DF800008DF82C009DF801008DF82D0092
:1020C0009DF802008DF82E00BDF826000844801C03
:1020D000ADF81C0006A8FFF75BFD0DF5014D10BD26
:1020E00024150020080100202DE9F0478B4AADF5AA
:1020F000014D03465088ADF80600401C5080C120B9
:102100008DF808000C204FF002098DF80C00012218
:102110008A468DF809900925052600210327042405
:102120008DF80A50ADF80460ADF80E2010460FF09F
:10213000A5F8BDF804C08DF810306044BDF80EC09D
:1021400060444FF00D0C401C8DF810C4ADF8040035
:10215000ADF8122410460FF091F8BDF804C08DF8C8
:1021600014146044BDF812C460444FF00E0C401CBF
:102170008DF814C8ADF80400ADF8162810460FF01D
:102180007DF8BDF804C08DF818186044BDF816C875
:102190006044401C4FF0120CADF804008DF818CCD0
:1021A0000620ADF81A0C0FF069F8BDF804C08DF8E0
:1021B0001C2C6044BDF81ACC8DF81D1C60448DF8B1
:1021C0001E1C8DF8201C0DF5805C8DF81F1C8DF8F1
:1021D000214C8CF81C50401CADF80400ACF81E20BB
:1021E00010460FF04BF8BDF804C04FF014086044DF
:1021F0000DF5805C8CF82020BCF81EC060440DF505
:10220000805C401C8CF82084ADF80400ACF822748B
:1022100038460FF033F8BDF80470074441F224400B
:10222000684400F80229C570067100880DF58055D4
:102230003844112685F82468401CADF804000DF5DB
:1022400080501025A0F8265828460FF017F8BDF842
:1022500004604027064441F62800684400F802194B
:10226000C270017142718171C271077241728572CF
:10227000C17202734173FF228273C273017441748D
:102280000088192532180DF58050521C80F8285C02
:10229000ADF80420A0F82A4C20460EF0EFFFBDF860
:1022A0000420024441F62C40684400F80299C370AF
:1022B0000171417100880DF500511044132281F81D
:1022C0002C20401CADF804008020C8850EF0D6FFFD
:1022D000BDF804100844ADF804000021684608E089
:1022E00042181AF8013002F50052491C82F83030C9
:1022F00089B20DF50052D28D8A42F1D80DF5005108
:10230000BDF80420C98D1144891CADF80410FFF7F5
:102310003FFC0DF5014DBDE8F087000008010020ED
:1023200070B507F0BFF8294A294C002153783BB11A
:10233000E068401CE060642801D3E160517070BD2A
:10234000E160A37808250B2B3AD2DFE803F0060AF8
:102350000E12161A1E2225293200FFF795FB0120C6
:1023600025E0FFF76BFE022021E0FFF74FFD032081
:102370001DE0FFF721FE042019E0FFF7EBFD05202B
:1023800015E000F053F9062011E000F0C5F9072030
:102390000DE000F0D5F911E000F0E8F9092006E0C1
:1023A0000C4890F8100108B100F0D0F90A20A07094
:1023B00070BDA168401AB0F57A7FF9D9A57070BDDB
:1023C0000348A17038305170418070BD0C26012047
:1023D000D0000020583000202DE9FF5F0446ADF505
:1023E000014D9B461846FDF740FF8F4A83B24FF0E0
:1023F000020A5088ADF80600401C5080C1208DF8BC
:1024000008000C208DF80C0001228DF809A0092687
:102410004FF005090021032704258DF80A60ADF867
:102420000490ADF80E2010460EF028FFBDF804C051
:102430008DF810406044BDF80EC060444FF00D0CA4
:10244000401C8DF810C4ADF80400ADF812241046FD
:102450000EF014FFBDF804C08DF814246044BDF8DC
:1024600012C460444FF00E0C401C8DF814C8ADF837
:102470000400ADF8162810460EF000FFBDF804C0A9
:102480008DF818186044BDF816C86044401C4FF021
:10249000120CADF804008DF818CC0620ADF81A0C1B
:1024A0000EF0ECFEBDF804C08DF81C2C6044BDF8A5
:1024B0001ACC8DF81D1C60448DF81E1C8DF8201C54
:1024C0000DF5805C8DF81F1C8DF8215C8CF81C606C
:1024D000401CADF80400ACF81E2010460EF0CEFEF5
:1024E000BDF804C04FF0140860440DF5805C8CF812
:1024F0002010BCF81EC060440DF5805C401C8CF8B8
:102500002084ADF80400ACF8227438460EF0B6FE14
:10251000BDF8047038440DF5805787F8242487F8F7
:10252000256487F82694B7F82264112730440DF506
:102530008056401C86F82478ADF804000DF58050D4
:102540000A26A0F8266830460EF098FEBDF8046012
:102550001027064441F62800684400F80219C270AA
:10256000017141718171C771027241728172C172D0
:1025700000880DF580513044192281F8282C401C28
:10258000ADF80400A1F82A5C28460EF077FEBDF8ED
:10259000041001440DF5805080F82CAC80F82D4CCF
:1025A0000DF50040D0F804210DF5805080F82E2C58
:1025B0000DF50040D0F808210DF5805080F82F2C43
:1025C000B0F82A0C132208440DF50051401C81F884
:1025D0002C20ADF80400CB8518460EF04FFEBDF858
:1025E00004100844ADF804000021684609E000BF6B
:1025F00042181BF8014002F50052491C82F8304095
:1026000089B29942F4D30DF50051BDF80420C98D6B
:102610001144891CADF80410FFF7BAFA44B00DF567
:10262000004DBDE8F09F00000801002000231A467D
:1026300019461846FFF756BAF0B510EE101A324A8E
:10264000914201DD9FED310A31490A25BCEEC00AF5
:10265000304F10EE103ACB6142F21071B3FBF1F142
:10266000B1FBF5F205FB12114FF47A72B3FBF2F2F3
:10267000B2FBF5F405FB14226424B3FBF4F4B4FBC1
:10268000F5F605FB1644B3FBF5F6B6FBF5FC05FBCA
:102690001C66B3FBF5FC39707A7005FB1C35BC7009
:1026A000FE703D71202321B101F1300700F8017B5C
:1026B00002E000F8013B2AB102F1300700F8017B8B
:1026C00019B104E000F8013B00E002B92CB104F1BB
:1026D000300700F8017B19B105E000F8013B01E08B
:1026E0000AB904B966B1303600F8016B30350570AF
:1026F00043706B2181706721C17000210171F0BDB1
:1027000000F8013BF2E70000804FC347804FC3470A
:10271000D0000020002601200EB500208DF800001A
:102720003020ADF802000220ADF804002020ADF802
:102730000600ADF808006846FFF7AEFA0EBD0000CF
:1027400001490020FFF7D0BCE81F01080EB506487C
:1027500090ED450A6846FFF76FFF00226B460121A6
:102760001046FFF739FE0EBD58300020002301222D
:1027700019460220FFF7B6B9134800219FED130A4E
:1027800001800121817080ED8C0A9FED110ADFED3F
:10279000110A80ED8B0A80ED8A0A9FED0F1AC0EDB9
:1027A000890A9FED0E0A80ED6C1A80ED6B0A80EDB0
:1027B0006A0AC0ED690A80ED701A80ED6F0A80ED3B
:1027C0006E0AC0ED6D0A7047E8050020804FC347D0
:1027D000009CAD4700000000003C1C4600E00A469B
:1027E00070B50F4A4FF40E734FF4A0551C4629469E
:1027F00002F65C70FFF7D6F809488078012803D10B
:102800000848807A00280AD0FFF7B6FF23462946F9
:10281000BDE87040024A02F65C70FFF7F7B870BD81
:10282000E8050020080000200C484FF40E734FF418
:10283000A0518278082A06D0092A0ED1024600F655
:102840005C70FFF7AFB80288002A06D101228270BF
:10285000024A02F65C70FFF7D9B87047E80500201D
:1028600002789FED220A002312B12D2A03D004E042
:1028700081ED000A1BE00123401CF0EE400AB2EE9D
:10288000041A0DE0303A0A2A19D201EE902AB0EE6D
:10289000602A401CF8EEE11AF0EE610A42EE010AED
:1028A00002782E2A05D0002AECD1C1ED000A0120C1
:1028B0007047F0EE411A0EE0303A0A2A01D30020A8
:1028C000704702EE102AF8EEC22A82EE812A21EE2B
:1028D000211A32EE000A10F8012F002AECD130EE56
:1028E000800A002BC4D0B1EE400AC1E7000000000E
:1028F0002C4810B590F8321011291ED190F83D10D7
:1029000090F83E2042EA0121C18690F83F2080F8ED
:102910003320103A022A10D2DFE802F0011010F83A
:10292000402F4078022A08D2092906D1002804D174
:102930001C4860304168491E416010BD1948403054
:102940000729FAD1002211460CE000BFA3F13004A0
:10295000092C06D802EB82025200303A1A44401C7D
:1029600000E0002203788BB12E2BEFD1401C0AE04F
:10297000A3F13004092C05D801EB8101490030395D
:102980001944F3E700210378002BF1D101F00F0087
:10299000054940EA021088724FF4EB700880082065
:1029A000887010BDDC21002094040020214810B55F
:1029B00090F83210112924D190F83D100C0290F8B3
:1029C0003E100C43C48690F83F1080F83310102955
:1029D00017D110F8401F4278022912D215496031F0
:1029E0004B68581C032C1BD00CDC012C13D0022C80
:1029F00007D1002A05D10C22C1F8040001EB8000A8
:102A0000826010BD042C10D0662CFAD1002AF8D1B7
:102A10005B1E4B6010BD002AFCD10B224860EDE725
:102A2000002AF7D10D224860E8E7002AF2D10E22F1
:102A30004860E3E7DC210020F8B5414C214694F8DA
:102A4000320091F83F10112820D194F83D0094F8FD
:102A50003E20A4F23C7542EA0020E08684F8331060
:102A60001039022912D2DFE801F0015314F8402F87
:102A70006178022A0AD2324C603463685B1E1A28DD
:102A800005D0252802D1002900D16360F8BD0029B6
:102A9000FCD12C482C4A00BF571810F8046B491C75
:102AA00087F884600529F7D3002606EB4607002146
:102AB00002EB470707EB010E10F804CB491C8EF818
:102AC00089C00429F6D307EB010EB0F800C0491CF9
:102AD0004FEA1C2C8EF889C0394410F804CB761CC0
:102AE00081F889C0042EE0D335F8900F22F8C60F84
:102AF000A888508028899080A889D080288A108151
:102B00004FF4FA7022F8C60C082002F8C40CBCE797
:102B100064381D28BAD80A4869464030FFF7A0FE3D
:102B20000028B3D09DED000AE18EBDEEC00A05EB92
:102B30008101A1F5805110EE100AC1F89C0EF8BD7C
:102B4000DC210020CC1A0020A804002038B5314C2C
:102B500094F83200112822D194F83D0094F83E10E8
:102B6000A4F23C7541EA0020E08694F83F1084F816
:102B700033101039022912D2DFE801F0013914F8BC
:102B8000401F637802290AD2224A60325168491EE6
:102B90001A2805D0252802D1002B00D1516038BD5C
:102BA000002BFCD11C4895ED330A4FF4FA7380EDED
:102BB0008C0A95ED340A80ED890A95ED350A80ED91
:102BC0008B0A95ED360A80ED6C0A80ED700A95ED62
:102BD000370A80ED690A80ED6D0A95ED380A80EDBF
:102BE0006B0A80ED6F0A038008238370D6E765388F
:102BF0000528D4D8074869464030FFF731FE002841
:102C0000CDD0E08E9DED000A05EB800000ED320A8C
:102C100038BD0000DC210020E80500202DE9F0414E
:102C20002F4890F83210112949D190F83D1090F8B2
:102C30003E2000F1600442EA0121C18690F83F2065
:102C400080F83320103A022A39D2DFE802F0010F6F
:102C500010F8402F4078022A31D205292FD10028C0
:102C60002DD16068401C032160602EE0242926D10C
:102C70001B4E1C4F4036002507EB05113046091D41
:102C8000FDF7FAFA10B16D1C082DF5D3CDB1082768
:102C9000012D1ED02846092502280AD012A130464F
:102CA000FDF7EAFAA8B113A13046FDF7E5FA0028CE
:102CB00005D16068401C606004EB80008560BDE861
:102CC000F0816068401C0721606004EB8000816037
:102CD000F5E76068401C606004EB80008760EEE709
:102CE000DC210020A8040020303937353338333652
:102CF00031000000303731313132000070B54448C6
:102D000090F83210112931D190F83D100B0290F853
:102D10003E100B43C38690F83F1080F833101039F3
:102D2000022923D2DFE801F0013F10F8401F42786A
:102D300002291BD2364960314C68601C052B23D018
:102D40000ADC012B13D0022B16D0032B0ED1002A44
:102D50000CD10522486013E0092B1AD00B2B1DD093
:102D6000662B03D1002A01D1641E4C6070BD002A7D
:102D7000FCD10422486003E0002AF7D10A2248600F
:102D800001EB8000826070BD002AFCD10622486001
:102D9000F6E7002AF7D102224860F1E7002AF2D1D3
:102DA00003224860ECE70C2BEDD1194C1949403453
:102DB0002046FDF761FA28B117A12046FDF75CFA1D
:102DC0000028E0D1FEF7F4FA12483224143808251E
:102DD00004808570FEF700FC124804808570FEF7C1
:102DE000B1FC114E3480B57002F0A8FC3480B5708F
:102DF000FFF7C2FC0D4804808570FEF70FFD0C48FC
:102E000004808570FEF792F90A480480857070BDD1
:102E1000DC210020BC04002030393735333833360C
:102E2000310000009404002040190020E805002033
:102E300084050020200800201D4810B590F83210AD
:102E4000112921D190F83D100C0290F83E100C434E
:102E5000C48690F83F1080F83310102914D110F870
:102E6000401F437802290FD2114960314A68501C33
:102E7000012C0AD0062C0DD00E2C13D0662C03D1B9
:102E8000002B01D1521E4A6010BD002BFCD1042240
:102E9000486003E0002BF7D10222486001EB80007C
:102EA000826010BD002BFCD103224860F6E70000D1
:102EB000DC21002030B52B480025014690F8322057
:102EC00091F83F10A0F23C73112A16D0262A13D194
:102ED000C28EA2F114000C280ED800290CD10120BA
:102EE00003EB8001401CC0B2CD620C28F8D903EB83
:102EF0008201012041F8240C30BD90F83D2090F86B
:102F00003E40102944EA0222C28680F83310F3D1F1
:102F100010F8401F40780229EED2124C60346168EC
:102F2000491E032A05D0042AE6D10028E4D16160B5
:102F300030BD0028FCD10C4A5FF0010082F8365009
:102F400003EB8005ED6A15B1451E82F83650401C32
:102F5000C0B20C28F4D94FF4FA7010800820907099
:102F6000E5E70000DC2100205403002030B54F4D80
:102F700087B095F83200112822D195F83D00A5F2CE
:102F80003C74010295F83E000143E98695F83F0044
:102F900085F833001038022812D2DFE800F0013E35
:102FA00015F8402F6878022A0AD209290AD00A297E
:102FB00006D1002804D13D4860304168491E416077
:102FC00007B030BD0028FBD114F82C0F8DF81B0082
:102FD00020798DF81900207A8DF81A00207B8DF861
:102FE0001800207C8DF80000207D8DF80100207EE7
:102FF0008DF8020000208DF808000390024604902E
:1030000069462B4807F036FB002206A9284807F03E
:10301000C9FA012044F8280CD2E7244805A9403019
:10302000FFF71EFC0028CBD0E88E0F2821D00CDC47
:10303000032833D00D2823D00E28C1D19DED050AD9
:10304000BDEEC00A84ED0D0ABAE710280AD0112897
:103050001DD01828B4D19DED050ABDEEC00A84ED3F
:103060000E0AADE79DED050ABDEEC00A84ED0B0A20
:10307000A6E79DED050ABDEEC00A84ED0C0A9FE7A8
:103080009DED050ABDEEC00A84ED0F0A98E79DED9F
:10309000050ABDEEC00A84ED100A91E79DED050A10
:1030A000BDEEC00A84ED110A8AE70000DC21002091
:1030B000241500202DE9F84F604C2046A4F23C7501
:1030C00094F8321090F83F00EA6A11290BD02629B3
:1030D00007D1E18E822904D1002802D1002A7DD0B7
:1030E000E862BDE8F88F94F83D1094F83E3004276C
:1030F00043EA0121E18684F83300514E103802285A
:10310000EFD2DFE800F0017214F8403F6078022B44
:10311000E7D2A1F1C903092B00D898B1DFF81C91BF
:10312000DFF820A109F16009702926D07129D8D1D2
:103130009AF8000086F8A100D9F80410491EC9F8D1
:103140000410CEE7404A002005EB431100EBC0031A
:1031500003EB001302EB8303D3F8503700EE103A71
:1031600001EB8003401CB8EE400AC0B2082883ED92
:10317000830AEBD386F8A170B3E7344C002100201A
:1031800005EB411704EB011307EB800C03EB400840
:103190009CED830A401CC0B2BCEEC00A082810EEA9
:1031A00010CAA8F880CBEFD3491CC9B20A29E6D3CC
:1031B00095ED330ABCEEC00A10EE100AA4F8200CFC
:1031C00095ED340ABCEEC00A10EE100AA4F8220CE9
:1031D00084F8682C1E480EF081F900E02BE04FF4D3
:1031E000FA7020800820A070A2E7144840304F29D0
:1031F00011D86946FFF734FB0028BBD0E08E9DED67
:10320000000AC10805EB411100F0070001EB800046
:1032100080ED830AAEE777390129ABD86946FFF71D
:103220001FFB0028A6D0E08E9DED000A05EB800074
:1032300000ED440A9EE7012052E70000DC21002057
:10324000A804002074000020AC22002020080020E8
:103250004814002070B525480024014690F832300B
:10326000012591F83F10A0F23C72112B0BD0262BB8
:1032700008D1C08E502833D0512803D1002901D164
:10328000C2E91A4570BD90F83D3090F83E601029B3
:1032900046EA0323C38680F83310F3D110F8401FA9
:1032A00046780229EED2114960314868401E1A2B37
:1032B00005D0252BE6D1002EE4D1486070BD002E4C
:1032C000FCD1966E0A4B012E01D1D26E32B1DD7265
:1032D0004FF4FA721A8008229A70EEE7DC72F7E770
:1032E0000029EBD1C2E91A5470BD0000DC21002096
:1032F00094040020F8B5564C94F83200112833D1CC
:1033000094F83D000427030294F83E00514E034315
:10331000E38694F83F0084F833001038A4F23C753B
:10332000022821D2DFE800F0016314F8400F617831
:10333000022819D2A3F1C900092800D8A9B1464A28
:10334000142B02F1CC0102F5B67052684CD0404CFF
:10335000424F60341A2B14D0252B05D1387886F8CB
:10336000A1006068401E6060F8BD3D4905EB80002B
:10337000D1F8901D00EE101AB8EE400A80ED5B0AFD
:1033800062E002F0B0F937496B680020C1F82C3BCD
:1033900013E000BF05EB800C01EBC0029CED330A8B
:1033A00002F5006E401C8EEDCD0A9CED5B0ABCEE72
:1033B000C00A10EE10CAC2F830CB8342EAD800230C
:1033C0009FED290A0A2809D201EBC00202F5006527
:1033D000401C85EDCD0AC2F8303BF3E74FF4FA709C
:1033E000088008208870B9E702F07DF9F8BD184818
:1033F000591E403009290BD86946FFF731FA18B336
:10340000E08E9DED000A05EB800080ED320A1BE0A6
:10341000A3F1650109290BD86946FFF721FA98B194
:10342000E08E9DED000A05EB800000ED0A0A0BE03E
:103430009D2B09D16946FFF713FA28B19DED000ACB
:10344000BCEEC00A85ED010A86F8A170F8BD000047
:10345000DC210020A8040020A01A00207400002015
:10346000AC2200202008002000000000F8B5564CD7
:1034700094F83200112833D194F83D000427030258
:1034800094F83E00514E0343E38694F83F0084F8DD
:1034900033001038A4F23C75022821D2DFE800F096
:1034A000016314F8400F6178022819D2A3F1C90012
:1034B000092800D8A9B1464A142B02F1CC0102F523
:1034C000B67052684CD0404C424F60341A2B14D026
:1034D000252B05D1387886F8A1006068401E606011
:1034E000F8BD3D4905EB8000D1F8701A00EE101AC6
:1034F000B8EE400A80ED5B0A62E002F0F4F837496A
:103500006B680020C1F88C3813E000BF05EB800C1D
:1035100001EBC0029CED330A02F5006E401C8EEDFB
:10352000250A9CED5B0ABCEEC00A10EE10CAC2F878
:1035300090C88342EAD800239FED290A0A2809D2BD
:1035400001EBC00202F50065401C85ED250AC2F8BA
:103550009038F3E74FF4FA70088008208870B9E7D4
:1035600002F0C1F8F8BD1848591E403009290BD89F
:103570006946FFF775F918B3E08E9DED000A05EB7B
:10358000800080ED320A1BE0A3F1650109290BD808
:103590006946FFF765F998B1E08E9DED000A05EBED
:1035A000800000ED0A0A0BE09D2B09D16946FFF768
:1035B00057F928B19DED000ABCEEC00A85ED010A5D
:1035C00086F8A170F8BD0000DC210020A8040020CE
:1035D000A01A002074000020AC2200202008002047
:1035E00000000000F8B5564C94F83200112833D191
:1035F00094F83D000427030294F83E00514E034323
:10360000E38694F83F0084F833001038A4F23C7548
:10361000022821D2DFE800F0016314F8400F61783E
:10362000022819D2A3F1C900092800D8A9B1464A35
:10363000142B02F1CC0102F5B67052684CD0404C0C
:10364000424F60341A2B14D0252B05D1387886F8D8
:10365000A1006068401E6060F8BD3D4905EB800038
:10366000D1F8D41A00EE101AB8EE400A80ED5B0AC9
:1036700062E002F038F837496B680020C1F8E038A2
:1036800013E000BF05EB800C01EBC0029CED330A98
:1036900002F5006E401C8EED3A0A9CED5B0ABCEE12
:1036A000C00A10EE10CAC2F8E4C88342EAD8002368
:1036B0009FED290A0A2809D201EBC00202F5006534
:1036C000401C85ED3A0AC2F8E438F3E74FF4FA708B
:1036D000088008208870B9E702F005F8F8BD18489E
:1036E000591E403009290BD86946FFF7B9F818B3BD
:1036F000E08E9DED000A05EB800080ED320A1BE0B4
:10370000A3F1650109290BD86946FFF7A9F898B11B
:10371000E08E9DED000A05EB800000ED0A0A0BE04B
:103720009D2B09D16946FFF79BF828B19DED000A52
:10373000BCEEC00A85ED010A86F8A170F8BD000054
:10374000DC210020A8040020A01A00207400002022
:10375000AC220020200800200000000010B52F4CF3
:10376000606804EB8000806801282CD002282DD0EE
:1037700003282ED004282FD0052830D0062831D099
:10378000082832D0072833D0092834D00A2835D069
:103790000B2836D00C2837D00D2838D00E2839D039
:1037A00005F080FE1E490968401A42F2283188421D
:1037B00003D9002161600121A160606804EB8000F1
:1037C0008068206210BD00F06FFFF6E701F0AEF9EF
:1037D000F3E700F027FAF0E701F03CFBEDE700F03B
:1037E0005BFCEAE700F01AFDE7E701F0C7F8E4E761
:1037F00001F0FAF8E1E701F035F9DEE700F016FC38
:10380000DBE701F08FFBD8E701F070FCD5E701F0B2
:1038100051FDD2E701F05AFACFE700003C22002028
:103820005C0000207EB50246F2EE040A02E000BF12
:1038300020EE200A521EFBD2B5EEC00AF1EE10FABD
:1038400004D22D2201F8012BB1EE400A10EE102A0D
:103850002A4B9A4201DD9FED2A0A2A4ABCEEC00A91
:1038600010EE103AB3FBF2F28DF8002042F2107223
:10387000B3FBF2F40A22B4FBF2F502FB15448DF817
:1038800001404FF47A74B3FBF4F4B4FBF2F502FB9D
:1038900015448DF802406424B3FBF4F4B4FBF2F554
:1038A00002FB15448DF80340B3FBF2F4B4FBF2F5D0
:1038B00002FB15448DF80440B3FBF2F402FB143212
:1038C0008DF8052000226B46C0F1050400E0521C73
:1038D0009D5C0DB99442FAD82E26062A0AD29D5C28
:1038E000303501F8015B18B1944201D101F8016B48
:1038F000521CF2E7002008707EBD0000F0237449DE
:10390000F0237449A086010030B50368EE255C1CE5
:1039100004601D700368B1255C1C04601D700368A1
:1039200011255C1C04601D7003680D0A5C1C04609A
:103930001D7003685C1C046019700168140A4B1C3C
:1039400003600C700168FC244B1C03600A70026861
:10395000FF21531C036011700268531C0360147034
:103960000268531C036011700268531C03601170DD
:1039700030BD00003EB5002803DA2D2302F8013BDC
:1039800040422A4B984200DD1846294B90FBF3F346
:103990008DF8003042F2107390FBF3F40A2394FB8D
:1039A000F3F503FB15448DF801404FF47A7490FB56
:1039B000F4F494FBF3F503FB15448DF80240642402
:1039C00090FBF4F494FBF3F503FB15448DF80340EE
:1039D00090FBF3F494FBF3F503FB15448DF80440DE
:1039E00090FBF3F403FB140000248DF805006B46F4
:1039F00006290BD8C1F1060004E0195C303102F849
:103A0000011B401C0628F8D314700DE0002000E0D4
:103A1000401C195C0029FBD004E0195C303102F82D
:103A2000011B401C0628F8D314703EBD3F420F0016
:103A3000A086010010B501220749084808F0E8FAFD
:103A400007490020087048608860A1F58A61087005
:103A5000BDE8104000F092BC7800002074180020EF
:103A60003C2200203A4810B5002180F832108186AF
:103A7000C18680F8331090F8392080F83120012A6F
:103A80000AD0032A08D0B12A14D0FF2280F83220AD
:103A900080F833108186C186808E01240F2850D291
:103AA000DFE800F04F25282B2E31343A37403D43D4
:103AB00046494C0090F83A3080F8323090F83B207C
:103AC00090F83C40012B44EA02228286E4D0112B7C
:103AD00001D0262BE0D190F83D2090F83E3043EA0B
:103AE0000222C28690F83F2080F83320D4E7FFF707
:103AF00095F82AE0FFF73AFA27E0FEF7F9FE24E00E
:103B0000FFF7A8FB21E0FEF797FF1EE0FFF71EF886
:103B10001BE0FFF7F3F818E0FFF78EF915E0FEF76A
:103B200045FF12E0FFF7C6F90FE0FFF7E3FB0CE0FB
:103B3000FFF79CFC09E0FFF755FD06E0FFF7BAFA36
:103B400003E003486030C0E901140248047010BD6E
:103B5000DC210020A01A00202DE9F0412E4C01228A
:103B6000211D25792D4808F053FA05F09BFC2C49BE
:103B70000A68831A0022C82B01D962704A60086063
:103B800027486778012303260830052F41D2DFE854
:103B900007F0030B16202A004A60EE2D02D1637055
:103BA00015544B60BDE8F0814B68282B31D21D5471
:103BB0004868401C4860FF2DF4D1022011E04A689B
:103BC00015544868401C486014E06670EAE763706A
:103BD000E8E74A6815544868401C4860FF2DF6D154
:103BE00004206070DEE74F683D544868401C486020
:103BF000FF2D02D0FC2DEAD1E7E7002004E00D18EC
:103C0000401C2E7A85F838604D688542F7D881F8D7
:103C1000303062704A60C5E77400002074180020DC
:103C2000DC210020F0B5D74C87B004F58960009402
:103C3000416800EB8101006A896881427ED00025DD
:103C4000A4F5557029460570684600F0C5FA0321B1
:103C5000684601F0B9FC0098EE21CB4E00F8011B3C
:103C6000B12100F8011B122100F8021B032100F80A
:103C7000015C00F8011B009096F836000C287CD2FD
:103C8000DFE800F07B060DFAF0EF7B7BEEED7BECDE
:103C9000BEA21021684601F001FDC3A205E0BBA24F
:103CA0001021684601F0FAFCC1A21121684601F01A
:103CB000F5FCC14A642112F8843FB3FBF1F03030C7
:103CC0008DF80400B3FBF1F001FB10370A20B7FBBD
:103CD000F0F330338DF80530B7FBF0F300FB1373CE
:103CE00030338DF806302D238DF8073092F801C05F
:103CF000BCFBF1F730378DF80870BCFBF1F701FB26
:103D000017CCBCFBF0F730378DF80970BCFBF0F72F
:103D100000FB17C730378DF80A708DF80B3092F81A
:103D200002C0BCFBF1F730378DF80C70BCFBF1F72B
:103D300001FB17CCBCFBF0F7303700E0F2E08DF868
:103D40000D70BCFBF0F700FB17C730378DF80E7015
:103D50008DF80F3092F803C0BCFBF1F730378DF8C7
:103D60001070BCFBF1F701FB17CCBCFBF0F7303750
:103D70008DF81170BCFBF0F700E0A7E000FB17C75F
:103D800030378DF812708DF813301379B3FBF1F2E0
:103D900030328DF81420B3FBF1F201FB1232B2FB8A
:103DA000F0F130318DF81510B2FBF0F100FB11206D
:103DB00030308DF816008DF8175001AA1221684690
:103DC00001F06CFC7D4D287A010900F00F0000EE37
:103DD000101A00EE900AB8EE400AF8EE600A9FED65
:103DE000781A80EE812ADFED771A7749022072EE89
:103DF000210A30EE800AFFF715FD734A022168465A
:103E000001F04CFC687A010900F00F0000EE900A06
:103E100000EE101A6C49F8EE600AB8EE400A022073
:103E200080EE812A72EE210A30EE800AFFF7FAFC5A
:103E3000654A0521684601F031FC0098FF21FC220B
:103E400000F8011B00F8012B00F8021B00F8011C10
:103E5000009096F836000C2872D205E02FE027E09B
:103E60001FE017E00FE007E0DFE800F08337395E7E
:103E700060626B737577797B54A21021684601F0FC
:103E80000DFC57A211E741A21021684601F006FC83
:103E900055A20AE74DA21021684601F0FFFB55A28A
:103EA00003E74AA21021684601F0F8FB53A2FCE6A2
:103EB00046A21021684601F0F1FB52A2F5E643A2AA
:103EC0001021684601F0EAFB50A2EEE63FA2102165
:103ED000684601F0E3FB50A2E7E60C2342E00F2323
:103EE00040E013220321684601F0C4FA07220321AF
:103EF0006846FFF709FD4AA30C220321684601F03A
:103F00008FFB0121684600F067F91E4900980839C7
:103F1000401A0838012248600A7082B2214642489D
:103F200008F04EF907B0F0BD09231BE00D2319E09E
:103F300004230A220321684601F09CFA0223D0E7F9
:103F400017E005230A220321684601F093FA0323B0
:103F5000C7E7062306E0082304E00A2302E0102353
:103F600000E011230A220321684601F083FA0423AA
:103F7000B7E703230A221946684601F07BFA0123BA
:103F8000AFE70000F41D002054030020D1EFB3BEC2
:103F9000D6C7C4DCD4DACFDFBCE0B2E2BFD8D6C625
:103FA000CFB5CDB300000000454B594A2D30370046
:103FB0004C592D3032000000A80400209404002049
:103FC0000000C8420AD7A33B941A0020D1EFB3BE29
:103FD000D4DACFDFBCE0B2E2CFB5CDB30000000051
:103FE0005259432D494900004D4C2D5A3130303043
:103FF000000000005A444F4D2D3031005952444DBD
:104000002D30310047544A303200000059434A4BAA
:1040100032303138000000004443532D494900003C
:1040200020202020000000007418002038B5164C15
:10403000009404F5896001254168026A00EB810162
:10404000A0F29C708968914201D0057002E001786D
:10405000002917D0002101700A21684601F0B4FA46
:104060000AA30C220A21684601F0DAFA06490098F0
:104070000839401A083848600D7082B22146054858
:1040800008F09EF838BD0000F41D002020202020FC
:1040900000000000741800202DE9F843DFF82081AB
:1040A000CDF8008008F5896001254168A8F55574B0
:1040B00000EB8101006A8968814232D0414A04F1F3
:1040C0002C0000215318491C93F88430052908C09E
:1040D000F8D3002606EB4603002102EB43035F18EA
:1040E000491C97F88970042980C0F8D35F18491CCF
:1040F00097F8897019443F02076091F88910761C7F
:10410000394402C0042EE5D332F8C61F016051883D
:10411000416091888160D188C160118901612570F9
:1041200002E02078002848D0002121700098EE227B
:10413000002700F8012BB12200F8012B122200F811
:10414000022B00F8011C052100F8011B64260090D9
:1041500004EB87001C4990ED0B0A00207F1CB8EE91
:10416000C00AFFF75FFB3146761C174A684601F02C
:1041700095FA822EECD30098FF21FC2200F8011B57
:1041800000F8012B00F8021B00F8011C009005212B
:10419000684601F019FA0DA33A220521684601F09C
:1041A0003FFA074900980839401A083848600D70EE
:1041B00082B24146074808F003F8BDE8F8830000E2
:1041C000F41D0020A8040020941A002020202020A4
:1041D000000000007418002010B50268EE24531C83
:1041E000036014700268B324531C036014700268E7
:1041F000FC24531C036011700268FF21531C0360F0
:1042000011700268531C036014700268531C036031
:1042100011700268531C0360117010BDF8B5514C49
:10422000009404F5896001264168A4F5557500EBFA
:104230008101006A896881421AD04B4890ED8C0A4E
:1042400085ED330A90ED890A85ED340A90ED8B0AED
:1042500085ED350A90ED6C0A85ED360A90ED690A18
:1042600085ED370A90ED6B0A85ED380A2E7002E075
:104270002878002874D000212970EE222270601C5A
:10428000B12200F8012B122200F8012B00F8021BCA
:10429000062100F8011C009095ED330A33490120F6
:1042A000FFF7C0FA314A6521684601F0F7F995ED4C
:1042B000340A2E490120FFF7B5FA2C4A66216846D8
:1042C00001F0ECF995ED350A28490120FFF7AAFA2B
:1042D000264A6721684601F0E1F995ED360A23493F
:1042E0000120FFF79FFA214A6821684601F0D6F9BC
:1042F00095ED370A1D490120FFF794FA1B4A692101
:10430000684601F0CBF995ED380A18490120FFF70E
:1043100089FA164A6A21684601F0C0F90098FF211F
:10432000FC2200F8011B00F8012B00F8021B00F82A
:10433000011C00900621684601F046F90CA32922D1
:104340000621684601F06CF9064900980839401AC0
:10435000083848600E7082B22146074807F030FFE7
:10436000F8BD0000F41D0020E8050020941A00208C
:10437000202020200000000074180020F0B587B035
:10438000A34C32230222A3A1A448009407F0B2FE5A
:104390000121684601F0A8F800216846FFF71CFFDC
:1043A0000021684601F010F90098EE21002500F880
:1043B000011BB12100F8011B122100F8021B984ECD
:1043C00000F8015C00F8015B009096F836000C28BC
:1043D0007DD2DFE800F0E0060DB6BDC4E0E0CBD250
:1043E000E0D990A20521684601F058F994A205E0B1
:1043F0008CA20521684601F051F993A20621684676
:1044000001F04CF9924A642012F8843FB3FBF0F1BA
:1044100030318DF80410B3FBF0F100FB11370A21A5
:10442000B7FBF1F330338DF80530B7FBF1F301FB47
:10443000137330338DF806302D238DF8073092F842
:1044400001C0BCFBF0F730378DF80870BCFBF0F70B
:1044500000FB17CCBCFBF1F730378DF80970BCFBC3
:10446000F1F701FB17C730378DF80A708DF80B3064
:1044700092F802C0BCFBF0F730378DF80C70BCFB33
:10448000F0F700FB17CCBCFBF1F730378DF80D705F
:10449000BCFBF1F701FB17C730378DF80E708DF8B4
:1044A0000F3092F803C0BCFBF0F730378DF8107076
:1044B000BCFBF0F700FB17CCBCFBF1F730378DF8F5
:1044C0001170BCFBF1F701FB17C7303700E062E069
:1044D0008DF812708DF813301379B3FBF0F230328F
:1044E0008DF81420B3FBF0F200FB1232B2FBF1F0B6
:1044F00030308DF81500B2FBF1F001FB10203030A8
:104500008DF816008DF8175001AA0721684601F0B2
:10451000C5F80098FF21FC2200F8011B00F8012BD0
:1045200000F8021B00F8011C009096F836000C28D9
:104530006CD2DFE800F06B3739595B5D5F61636512
:10454000676944A20521684601F0A8F846A255E72C
:1045500034A20521684601F0A1F845A24EE73DA22C
:104560000521684601F09AF844A247E739A20521DF
:10457000684601F093F843A240E736A20521684659
:1045800001F08CF841A239E732A20521684601F01A
:1045900085F840A232E72FA20521684601F07EF897
:1045A0003FA22BE70C2300E00F23042200216846E2
:1045B00000F060FF01216846FFF70EFE072203218D
:1045C0006846FFF7A1F9124E0098083E801B083894
:1045D00070600121317082B2322321460F4807F00A
:1045E00089FD357007B0F0BD0923DEE70D23DCE758
:1045F0000423DAE70523D8E70623D6E70823D4E720
:104600000A23D2E71023D0E71123CEE70323CCE718
:10461000F41D0020413535410000000074180020D1
:1046200054030020D1EFB3BED6C7C4DCD4DACFDF49
:10463000BCE0B2E2BFD8D6C6CFB5CDB30000000013
:10464000454B594A2D3037004C592D30320000006F
:10465000A8040020D1EFB3BED4DACFDFBCE0B2E2D1
:10466000CFB5CDB3000000005259432D4949000099
:104670004D4C2D5A31303030000000005A444F4D1F
:104680002D3031005952444D2D30310047544A30BD
:104690003200000059434A4B3230313800000000EC
:1046A0004443532D494900002DE9F84FDFF8A8A2F3
:1046B00000216846CDF800A0FFF78EFD0098EE219E
:1046C000002400F8011BB12100F8011B122100F8A1
:1046D000021B4FF0010900F8014C00F8019B00900B
:1046E0009EA22421684600F0D9FFA04600259C4CDC
:1046F000AAF558762D2700BF04EBC50090F890105E
:1047000031B190ED250A97490020FFF78BF806E0BC
:1047100037707770B770F770377186F80580914AF7
:1047200005F15001684600F0B9FF6D1CEDB2102D87
:10473000E2D30025DFED8C1A9FED8C1A04EBC50047
:1047400090F8901051B190ED250A8649002020EE96
:10475000210A20EE010AFFF765F806E0377077704E
:10476000B770F770377186F805807E4A05F16401ED
:10477000684600F093FF6D1CEDB2102DDED314F8E7
:10478000900F217A0843217C14F8182F1143084315
:10479000217A0843217C0843217E084394F82010A5
:1047A000084394F82810084394F83010084394F80C
:1047B0003810084394F84010084394F84810084310
:1047C00094F85010084394F85810084394F8601077
:1047D000A83C084306D094ED450A62490020FFF743
:1047E00021F806E037707770B770F770377186F888
:1047F00005805C4A6021684600F050FF14F8900F75
:10480000217A0843217C14F8182F11430843217A98
:104810000843217C0843217E084394F82010084374
:1048200094F82810084394F83010084394F838108E
:10483000084394F84010084394F84810084394F84B
:104840005010084394F85810084394F86010A83C9E
:1048500008430AD094ED450A4249002020EE210A7F
:1048600020EE010AFEF7DEFF06E037707770B770C2
:10487000F770377186F805803A4A6121684600F082
:104880000DFF0098FF21FC2200F8011B002500F815
:10489000012B00F8021B00F8011C009004EBC5007E
:1048A00090F8900008B1012300E0002305F13C02DC
:1048B0000121684600F0DEFD6D1CEDB2102DEDD338
:1048C0002B480078032828D0022843D00023272231
:1048D0000121684600F0CEFD0021684600F004FE8C
:1048E0000121684600F070FE1CA3232201216846C6
:1048F00000F096FE01216846FFF76EFC164800990D
:104900000838091A0839416080F800908AB2514687
:10491000184807F055FCBDE8F88F17480078632861
:1049200018D0022803D3A0F16501042901D802237D
:10493000CDE70A2803D3A0F16A01222901D8032375
:10494000C5E7142802D38D38132801D80423BEE705
:104950000523BCE70123BAE7F41D00200000000096
:1049600058300020941A002000404E450000803945
:104970000A000020741800200B00002038B5164CE7
:10498000009404F5896001254168026A00EB810109
:10499000A0F29C708968914201D0057002E0017814
:1049A000002917D0002101700821684600F00CFE94
:1049B0000AA30C220821684600F032FE064900983E
:1049C0000839401A083848600D7082B221460548FF
:1049D00007F0F6FB38BD0000F41D00202020202049
:1049E0000000000074180020F8B51A4D009505F578
:1049F000896001264168026A00EB8101A0F29C7087
:104A00008968914201D0067002E0017800291FD028
:104A1000002101700721684600F0D6FD0D4C00987A
:104A2000083C001BA4F556720421C01DFEF7A2FF2E
:104A300009A30C220721684600F0F2FD00982946E0
:104A4000001B0838606082B22670054807F0B8FB8A
:104A5000F8BD0000F41D00202020202000000000F0
:104A600074180020F8B52C48009000F589610127E2
:104A70004A68054601EB8202096A93680022A0F5A4
:104A800055768B420FD0002106EB8103491CC9B239
:104A9000DA620D29F8D3214991F8361006EB81012D
:104AA0000F63377002E03178002934D03270EE2184
:104AB00000F8011BB12100F8011B122100F8021BB4
:104AC000092100F8012C00F8011B0024CDF800009A
:104AD00006EB840004F11402C36A0921684600F061
:104AE000C9FC641CE4B20D2CF2D30921684600F025
:104AF0006BFD0BA329220921684600F091FD0649B0
:104B000000980839401A083848600F7082B2294668
:104B1000054807F055FBF8BDF41D002054030020A4
:104B2000202020200000000074180020F0B5604E06
:104B300089B006F5896000964168012700EB810184
:104B4000006A89680025A6F55574814220D00022AC
:104B500002A9584805F0B2FC002207A9554805F003
:104B60008BFC9DF81F00E0629DF81D0020639DF8FE
:104B70001E0060639DF81C00A0639DF80800E063C0
:104B80009DF8090020649DF80A0065606064277044
:104B900025700098EE21484A00F8011BB12100F869
:104BA000011B122100F8021B022100F8015C00F831
:104BB000011B0090E06AFEF7DDFE3F4A10216846C7
:104BC00000F06CFD3C4A0221206BFEF7D3FE3A4A0E
:104BD0000F21684600F062FD374A0221606BFEF744
:104BE000C9FE354A0E21684600F058FDA06B062824
:104BF00001DD32A204E0304A0121FEF7BBFE2E4A5D
:104C00001821684600F04AFD2B4A0221E06BFEF7AE
:104C1000B1FE294A0D21684600F040FD264A0221D6
:104C2000206CFEF7A7FE244A1121684600F036FDED
:104C3000214A0221606CFEF79DFE1F4A032168464F
:104C400000F02CFD0098FF21FC2200F8011B00F869
:104C5000012B00F8021B00F8011C0090002168469F
:104C6000656000F041FC0221684600F0ADFC104C8C
:104C70000098083C001B104A0421C01DFEF77AFE74
:104C80000D4B13220221684600F0CAFC0CA313222C
:104C90000221684600F0C4FC00983146001B083829
:104CA000606082B22770084807F08AFA09B0F0BD48
:104CB000F41D002024150020941A0020C8D50000FF
:104CC0002020202000000000741800202DE9F84F5B
:104CD0005A4A009202F5896092464168A2F55573DE
:104CE00000EB8101006A8968814230D05020544C29
:104CF00000215860002004EB011603EB411500BFB2
:104D000006EB4007B7F8807B00EE107A05EB8007D2
:104D1000401CB8EE400AC0B2082887ED830AEFD3E2
:104D2000491CC9B20A29E5D3B4F8200C00EE100AD8
:104D3000B8EE400A83ED330AB4F8220C00EE100AF4
:104D4000B8EE400A83ED340A94F8680CD8621878FB
:104D5000002853D000201870EE2102F8011BB12169
:104D600002F8011B122102F8021B002502F8010CB7
:104D70000E2002F8010B77272E4699460092002458
:104D800009EB461808EB84002E4990ED830A0020B9
:104D9000FEF748FD29466D1C2A4A684600F07EFC55
:104DA000641CE4B2082CEDD3761CF6B20A2EE6D3CE
:104DB00000244D4605EB8400224990ED330A002083
:104DC000FEF730FD39467F1C1E4A684600F066FC3F
:104DD000641CE4B2022CEDD30098FF21FC2200F801
:104DE000011B00F8012B822200F8021B00F8011CB5
:104DF00000900E216846EB6A00F03CFB0E216846ED
:104E000000F0E2FB0D4C0098083C001B0D4A042109
:104E1000C01DFEF7AFFD0CA374220E21684600F002
:104E2000FFFB00980121001B08386060217082B2EE
:104E30005146074807F0C4F9BDE8F88FF41D00207B
:104E400020080020941A00202020202000000000CC
:104E500074180020F8B52E4C009404F589600127E1
:104E60004168026A00EB8101002089682646A4F5AA
:104E7000557591420CD02749C97A11B1012905D144
:104E800002E0C5E91A7001E0C5E91A072F7002E0D7
:104E9000297800293BD02870EE2104F8011BB121AC
:104EA00004F8011B122104F8021BFC2104F8010C78
:104EB000042004F8040BFF2004F8030C04F8021C7F
:104EC00004F8010C04F8010B0094502204216846F8
:104ED000AB6E00F0CFFA512204216846EB6E00F071
:104EE000C9FA0421684600F06FFB0BA329220421B4
:104EF000684600F095FB064900980839401A0838C2
:104F000048600F7082B23146054807F059F9F8BD84
:104F1000F41D002094040020202020200000000028
:104F2000741800202DE9F84F6749009101F5896058
:104F3000DFF8989142688A4600EB8202006A926824
:104F4000A1F5557482422ED0614AD2F82C0B6060D4
:104F5000002012E002EBC00303F5006595EDCD0AD9
:104F600004EB8005401C85ED330AD3F8303B00EE9E
:104F7000103AB8EE400A85ED5B0A63688342E9D8CF
:104F8000DFED540AD9F8942DD2030A280BD200EE93
:104F9000102A04EB8003401CB8EE400AC3ED330A2C
:104FA00083ED5B0AF1E7207800285CD000202070B8
:104FB000EE2201F8012BB12201F8012B122201F897
:104FC000022B002701F8010C0B2001F8010B012630
:104FD000652500911BE000BF04EB87083E4998ED72
:104FE000330A0020FEF71EFC3146761C3A4A68461A
:104FF00000F054FB98ED5B0A37490020FEF712FCE5
:1050000029466D1C344A684600F048FB7F1C6068E6
:10501000B842E1D80CE03146761C30A2684600F078
:105020003DFB29466D1C2DA2684600F037FB7F1C16
:105030000A2FF0D394ED010A27490020B8EE400A68
:10504000FEF7F0FB244A9D21684600F027FB0098FC
:10505000FF21FC2200F8011B00F8012B00F8021BC5
:1050600000F8011C0090D9F8900D1B4900EE100AC1
:105070000020B8EE400AFEF7D5FB174B47220B2164
:10508000684600F0CDFA0B21684600F09DFA0E4C00
:105090000098083C001B104A0421C01DFEF76AFC62
:1050A0000FA312220B21684600F0BAFA00980121E2
:1050B000001B08386060217082B251460A4807F030
:1050C0007FF8BDE8F88F0000F41D0020AC2200201E
:1050D0002008002000000000941A0020200000009A
:1050E0002020202000000000741800202DE9F84F37
:1050F0006749009101F58960DFF8989142688A4616
:1051000000EB8202006A9268A1F5557482422ED0AB
:10511000614AD2F88C086060002012E002EBC00304
:1051200003F5006595ED250A04EB8005401C85ED2F
:10513000330AD3F8903800EE103AB8EE400A85ED05
:105140005B0A63688342E9D8DFED540AD9F8942DED
:1051500012030A280BD200EE102A04EB8003401C35
:10516000B8EE400AC3ED330A83ED5B0AF1E720781D
:1051700000285CD000202070EE2201F8012BB12223
:1051800001F8012B122201F8022B002701F8010C73
:105190000C2001F8010B0126652500911BE000BFE2
:1051A00004EB87083E4998ED330A0020FEF73AFBEE
:1051B0003146761C3A4A684600F070FA98ED5B0A70
:1051C00037490020FEF72EFB29466D1C344A6846FD
:1051D00000F064FA7F1C6068B842E1D80CE0314608
:1051E000761C30A2684600F059FA29466D1C2DA2A3
:1051F000684600F053FA7F1C0A2FF0D394ED010AA1
:1052000027490020B8EE400AFEF70CFB244A9D21F6
:10521000684600F043FA0098FF21FC2200F8011BC9
:1052200000F8012B00F8021B00F8011C0090D9F8CF
:10523000700A1B4900EE100A0020B8EE400AFEF783
:10524000F1FA174B47220C21684600F0E9F90C21CE
:10525000684600F0B9F90E4C0098083C001B104A53
:105260000421C01DFEF786FB0FA312220C21684605
:1052700000F0D6F900980121001B08386060217009
:1052800082B251460A4806F09BFFBDE8F88F000045
:10529000F41D0020AC2200202008002000000000A7
:1052A000941A002020000000202020200000000090
:1052B000741800202DE9F84F6549009101F58960C7
:1052C000DFF8909142688A4600EB8202006A926899
:1052D000A1F5557582422BD05F4AD2F8E00868608C
:1052E000002012E002EBC00303F5006494ED3A0ADB
:1052F00005EB8004401C84ED330AD3F8E43800EE5B
:10530000103AB8EE400A84ED5B0A6B688342E9D834
:10531000DFED520A99ED130A0A2809D205EB800243
:10532000B8EE401AC2ED330A401C82ED5B1AF3E777
:10533000287800285BD000202870EE2201F8012B8D
:10534000B12201F8012B122201F8022B002401F8EE
:10535000010C0D2001F8010B0127652600911AE0D0
:1053600005EB84083E4998ED330A0020FEF75AFA0F
:1053700039467F1C3A4A684600F090F998ED5B0A7E
:1053800037490020FEF74EFA3146761C344A68460B
:1053900000F084F9641C6868A042E1D80CE039464A
:1053A0007F1C30A2684600F079F93146761C2DA2A8
:1053B000684600F073F9641C0A2CF0D395ED010ADD
:1053C00027490020B8EE400AFEF72CFA244A9D2116
:1053D000684600F063F90098FF21FC2200F8011BE9
:1053E00000F8012B00F8021B00F8011C0090D9F80E
:1053F000D40A1B4900EE100A0020B8EE400AFEF75E
:1054000011FA174B47220D21684600F009F90D21CA
:10541000684600F0D9F80E4C0098083C001B104A72
:105420000421C01DFEF7A6FA0FA312220D21684623
:1054300000F0F6F800980121001B08386060217028
:1054400082B251460A4806F0BBFEBDE8F88F000064
:10545000F41D0020AC2200202008002000000000E5
:10546000941A0020200000002020202000000000CE
:105470007418002070B50468EE26651C056026705F
:105480000468B126651C0560267004682326651C27
:105490000560267004680E0A651C056026700468A5
:1054A000651C056021700168150A4C1C04600D70B4
:1054B00001684C1C04600A700168FC244A1C0260EC
:1054C0000B700268FF21531C036011700268531CAB
:1054D000036014700268531C036011700268531C4F
:1054E0000360117070BD000030B587B00D460446F2
:1054F00001226946324804F0E1FF012205A9304843
:1055000004F0BAFF2F48817849B99DF80210C2789B
:10551000914204D0CA0702D001228270C170817802
:1055200029434AD0002181702068EE22411C21606D
:10553000027020688122411C2160027020689DF861
:105540000220411C2160027020689DF80120411C4E
:105550002160027020689DF80020411C21600270CB
:1055600020689DF81620411C216002709DF81400EF
:10557000062800D900202168FC234A1C22600870FC
:1055800020689DF81520411C2160027020689DF85C
:105590001720411C216002702168FF204A1C2260F4
:1055A000087021684A1C22600B7021684A1C226026
:1055B000087021684A1C2260087007B030BD0000E6
:1055C000241500207400002010B50268EE24531C3E
:1055D000036014700268B124531C036014700268E5
:1055E0000024531C0360147002680C0A531C0360EF
:1055F00014700268FC24531C036011700268FF21C0
:10560000531C036011700268531C0360147002681D
:10561000531C036011700268531C0360117010BDAD
:1056200070B50468EE26651C056026700468B12616
:10563000651C0560267004681026651C05602670D0
:1056400004680E0A651C056026700468651C056008
:1056500021700168150A4C1C04600D7001684C1C17
:1056600004600A7004E001684C1C04600A705B1C52
:105670001A78002AF7D10268FF21531C03601170C9
:105680000268FC24531C036014700268531C0360FE
:1056900011700268531C0360117070BDF0B505688D
:1056A0000F0A6E1C06602F70056800236E1C0660D2
:1056B0001446297000E05B1C14F8011B0029FAD184
:1056C00001681D0A4C1C04600D7001684C1C0460CC
:1056D0000B7004E001684C1C04600B70521C1378C2
:1056E000002BF7D1F0BDF0B50023551E22E05C1C65
:1056F0001DE000EB830700EB840697ED000AD6ED72
:10570000000AB4EEE00AF1EE10FA0FDD01EB830CB3
:105710009CED001AC7ED000A01EB8407D7ED000AE3
:10572000CCED000A86ED000A87ED001A641C944255
:10573000DFD35B1CAB42DAD3F0BD00000D48002183
:105740000122018082704FF4FA63C38002724272B8
:105750004381027342738173C17301744174817414
:10576000027100228318521CD2B2D974EA2AF9D3EA
:10577000704700009003002070B54FF482734FF41F
:10578000F0551C460B4A29460B48FCF70BF9094813
:105790008078012803D10948807A002809D0FFF7D2
:1057A000CDFF23462946BDE87040024A0248FCF777
:1057B0002DB970BD90030020441500200800002082
:1057C0000B484FF482734FF4F0518278082A05D0C9
:1057D000092A0CD102460748FCF7E4B80288002ADF
:1057E00005D101228270024A0248FCF70FB97047C6
:1057F000900300204415002070B5214800240121A9
:10580000047044800171C480017244810173C481B9
:10581000017444820175C482017644830177C48394
:1058200080F82010448480F82410C48480F8281064
:105830004485C16280F8304080F8314080F83240C1
:1058400080F8331080F8341080F8354080F8364006
:1058500080F8374080F8384080F83910448780F865
:105860003C10C48780F84010064DA0F84240E81C68
:1058700029706C70AC7004A1FAF70CFD2C6170BD3E
:105880008C3100202C190020CEB4CADAC8A8000040
:1058900010B564490023644C644A9FED650A9FED8E
:1058A000651A1A2843D01B287ED022283AD191F8B5
:1058B0001001C0B394F8C400A8B3D2ED8C2AD2ED85
:1058C0008B1AD1ED450A32EEC11A31EEC02A0846D4
:1058D00031EE400AF4EEC10AB0F81201F1EE10FA0E
:1058E00002DB40F0400006E0F4EEC00AF1EE10FAF0
:1058F00003D220F04000A1F81201F4EEE10AF1EE2B
:1059000010FA04DBB1F8120140F0200008E0F4EED8
:10591000C20AF1EE10FA05D2B1F8120120F020000F
:10592000A1F8120110BDFFE7A1F81231FAE791F8D2
:10593000D00058B394F8BC0040B3D2ED6C2AD2ED3D
:105940006B1AD1ED350A32EEC11A31EEC02A354854
:1059500031EE400AF4EEC10AB0F8D200F1EE10FACE
:1059600002DB40F0400006E0F4EEC00AF1EE10FA6F
:1059700003D220F04000A1F8D200F4EEE10AF1EEEB
:1059800010FA04DB31F8D20F3BE00DE009E0F4EE51
:10599000C20AF1EE10FAC5D231F8D20F3BE008800E
:1059A000C0E7A1F8D230BDE791F8D800B0B394F8C1
:1059B000BD0098B3D2ED702AD2ED6F1AD1ED370A3F
:1059C00032EEC11A31EEC02A164831EE400AF4EE2A
:1059D000C10AB0F8DA00F1EE10FA02DB40F0400044
:1059E00006E0F4EEC00AF1EE10FA03D220F0400017
:1059F000A1F8DA00F4EEE10AF1EE10FA04DB31F876
:105A0000DA0F40F02000CAE7F4EEC20AF1EE10FA15
:105A100088D231F8DA0F20F02000C0E7FFE7A1F8C4
:105A2000DA307FE758300020A8040020E805002085
:105A3000CDCC4C3E8FC2F53C01210170002180F895
:105A4000A81080F8A91080F8321180F85111704721
:105A500030B546484FF47A7310220021C364C0E980
:105A6000002180F8601080F86110C0F8B030C0E903
:105A7000192180F8C41080F8C5103D4BC0F81431CE
:105A8000C0E9322180F8281180F82911C0F8783156
:105A9000C0E94B2180F88C1180F88D11C0F8DC3101
:105AA000C0E9642180F8F01180F8F1116423C0F896
:105AB0004032C0E97D2180F8541280F85512C0F8B8
:105AC000A432C0E9962180F8B81280F8B9120A23EE
:105AD000C0F80833C0E9AF2180F81C1380F81D130B
